S00E00006863737230352E7372656301
S113000071C000008EC000008CC000008AC00000D7
S113001088C0000086C0000084C0000082C00000C8
S113002080C000007EC000007CC000007AC00000D8
S113003078C0000076C0000074C0000072C00000E8
S113004070C000006EC000006CC000006AC00000F8
S113005068C0000066C0000064C0000062C0000008
S113006060C000005EC000005CC000005AC0000018
S113007058C0000056C0000054C0000052C0000028
S113008050C000004EC000004CC000004AC0000038
S113009048C0000046C0000044C0000042C0000048
S11300A040C000003FC000003CC000003AC0000057
S11300B038C0000036C0000034C0000032C0000068
S11300C030C000002EC000002CC000002AC0000078
S11300D028C0000026C0000024C0000022C0000088
S11300E020C0000011241FBECFEFD1E2DEBFCDBF80
S11300F000E00CBF12E0A0E0B2E0E6EDF2E000E0C8
S11301000BBF02C007900D92A431B107D9F722E0CA
S1130110A4E1B2E001C01D92A132B207E1F7B3D06D
S1130120D8C06ECF1F920F920FB60F9211240BB648
S11301300F928F939F93EF93FF938091A10086FF7B
S11301400EC08091A6009091A70090931E02809308
S11301501D02E1EAF0E080818F7B808316C08091EC
S1130160A6009091A7009093200280931F02E2E7DB
S1130170F0E080818F7D80831092A5001092A4000E
S11301801092A10081E080931C02FF91EF919F9156
S11301908F910F900BBE0F900FBE0F901F9018956C
S11301A087E690E09093C5008093C40088E1809333
S11301B0C10086E08093C2000895E0ECF0E09081F5
S11301C095FFFDCF8093C60008950F931F93CF939F
S11301D0DF93062F662341F0C82FD92F10E08991B1
S11301E0ECDF1F5F1013FBCFDF91CF911F910F91B5
S11301F00895ABE1B2E044E152E0FD0120E030E0DB
S11302009E9190839291290F311DE417F507C1F750
S113021080931402280F311DC901929582958F7025
S113022089279F7089270895EBE0F1E0808182603F
S113023080838AE48A95F1F780818D7F808382ECC4
S11302408093A10080E28093720080911C02882335
S1130250E1F310921C0220911F0230912002809140
S11302601D0290911E022C5F3F4F281B390BAFE9F2
S1130270B6E420D096958795929582958F708927BC
S11302809F70892708958CDF62E180E092E09DDF12
S1130290EAE0F1E080818260808380818E7F8083C8
S11302A0EBE0F1E08081816080837894BDDFA1DFA1
S11302B084DFFCCFA29FB001B39FC001A39F700D48
S11302C0811D1124911DB29F700D811D1124911D5A
S10902D00895F894FFCF2D
S11302D6496E697469616C697A696E67204943502D
S10702E6310A0000D5
S9030000FC
